:020000040800F2
:10000000C81500209D0100085B200008CD1C0008D9
:1000100059200008A902000841280008000000003B
:10002000000000000000000000000000D9210008CE
:10003000AB020008000000005D200008DB21000882
:10004000B7010008B7010008B7010008B7010008B0
:10005000B7010008B7010008AD020008D10200088E
:10006000B7010008B7010008B7010008B701000890
:10007000B7010008B7010008B7010008B701000880
:10008000B7010008B7010008B7010008B701000870
:10009000B7010008B7010008B7010008B701000860
:1000A000B7010008B7010008B7010008B701000850
:1000B000812200088D22000899220008B70100085B
:1000C000B7010008B7010008B7010008B701000830
:1000D000B701000835280008B7010008B70100087B
:1000E000B3020008B7010008B7010008B701000813
:1000F000B7010008B7010008B7010008B701000800
:10010000B7010008B7010008B7010008B7010008EF
:10011000B7010008B7010008B7010008B7010008DF
:10012000B7010008B7010008B7010008B7010008CF
:10013000B7010008B7010008B7010008B7010008BF
:10014000B7010008B7010008B7010008B7010008AF
:10015000B7010008B7010008B7010008B70100089F
:10016000B7010008B7010008B7010008B70100088F
:10017000B7010008B7010008B7010008000000003F
:10018000B7010008B7010008DFF80CD000F07AF8DA
:1001900000480047FD2B0008C8150020064880478E
:1001A00006480047FEE7FEE7FEE7FEE7FEE7FEE75C
:1001B000FEE7FEE7FEE7FEE771220008890100087E
:1001C0002DE9F05F0546002092469B46884606468C
:1001D000814640241BE0284641464746224600F01F
:1001E00041F853465A46C01A914110D31146184659
:1001F000224600F028F82D1A67EB01084F462246E8
:100200000120002100F01FF817EB00094E41201ECD
:10021000A4F10104DFDC484631462A464346BDE8E6
:10022000F09FD2B201E000F8012B491EFBD27047CB
:100230000022F6E710B513460A4604461946FFF7B2
:10024000F0FF204610BD202A04DB203A00FA02F11C
:10025000002070479140C2F1200320FA03F31943B4
:1002600090407047202A04DB203A21FA02F0002156
:10027000704721FA02F3D040C2F1200291400843B6
:1002800019467047064C074D06E0E06840F0010350
:1002900094E8070098471034AC42F6D3FFF778FF94
:1002A000882D0008A82D0008FEE77047012000F007
:1002B0007FB910B54FF4806000F07AF94FF4006018
:1002C00000F076F9BDE810404FF4805000F070B9AE
:1002D000022000F06DB972B6FEE72DE9F041044648
:1002E000876D00F07BFA064694F835000025022859
:1002F00006D08020606584F834500120BDE8F0818C
:100300002068016821F0160101602068416921F030
:1003100080014161206C08B9A06C20B1206801689F
:1003200021F0080101602068016821F001010160ED
:100330000CE000F053FA801B052807D920206065E7
:10034000032084F8350084F83450D7E7206800682B
:10035000C007EED194F85C103F208840B8600120BF
:1003600084F8350084F834500020C7E790F8351041
:10037000022903D08021416501207047052180F8C2
:1003800035100068016821F001010160002070470C
:1003900070B5044600F022FA0546601C02D00448FD
:1003A0000078044400F01AFA401BA042FAD370BD52
:1003B0002C0000202DE9F047784D4FF4805128465D
:1003C00000F0FAF9764E774C4FF4FA5743F2C8280A
:1003D00044F25069A0B14FF4006A5146284600F03B
:1003E000EBF948B32915704D284600F0E5F90028CF
:1003F00073D00121304600F0DFF900286CD0B6E060
:100400002088401E80B22080042804D0032804D015
:10041000022804D006E0384602E0404600E04846A4
:1004200002F08EF82088012805D14FF47A6002F09E
:1004300087F8052020809AE020880425042804D02D
:1004400003281BD0022832D091E06088401E80B281
:100450006080032804D0022805D0012806D086E059
:1004600042F2107003E042F6E06000E0384602F02D
:1004700067F8608801287AD1658078E0A088401EFE
:1004800080B2A080032804D0022805D0012806D01D
:100490006DE043F6982003E044F2682000E0404617
:1004A00002F04EF8A088012861D1A5805FE0E088C5
:1004B000401E80B2E080032802D0022803D056E01C
:1004C00044F6206000E0484602F03AF8E08802284E
:1004D0004DD1E5804BE000E045E03249238808310A
:1004E00032484FF49672042B08D0032B14D0022B01
:1004F00020D0012B28D0052B26D02EE06388032B9B
:1005000004D0022B04D0042B04D026E061231CE08D
:1005100062231AE0632318E0A388032B04D0022B84
:1005200004D0042B04D018E064230EE065230CE013
:1005300066230AE0E388032B02D0042B02D00CE0F0
:10054000672302E0682300E06A230B700168154806
:10055000A1F59671083002F059FA0022514628465A
:1005600000F037F903E02021284600F02AF90221A3
:10057000304600F021F900280DD10221304600F06C
:100580001BF9002807D16089401C80B260810828CF
:1005900001D100206081BDE8F0870000001002401A
:1005A000000002400400002000080240000000207B
:1005B000044910B50A68024202D00860FFF7FAFE4B
:1005C00010BD0000143C01402DE9F84FDFF8BCA13C
:1005D0000022012503264FF00F090AF1040BAAF1AE
:1005E000040E00BF0B6805FA02F42340A34270D149
:1005F0000F7907F00307012F01D0022F16D187686A
:100600004FEA420806FA08FC27EA0C07D1F80CC0AA
:100610000CFA08FC4CEA070CC0F808C04768A7436E
:100620000C79C4F3001494403C4344600C79E443D7
:10063000A4070AD0C4684FEA420C06FA0CF7BC4380
:100640008F6807FA0CF72743C7600C7904F003049E
:10065000022C12D1D40800EB840CDCF820405707A0
:10066000FF0E09FA07F824EA0804D1F8108008FA06
:1006700007F848EA0408CCF8208004684FEA420CE6
:1006800006FA0CF7BC430F7907F0030707FA0CF7DB
:10069000274307604C6814F4403F70D03C4C2768F7
:1006A00047F480472760246822F0030704F480445D
:1006B0000094384C07EB040CDCF8084897074FEA25
:1006C000177809FA08F7BC43334FB84202D1002724
:1006D00024E054E0314FB84201D101271EE0304FF1
:1006E000B84201D1022719E02E4FB84201D10327A9
:1006F00014E02D4FB84201D104270FE02B4FB84230
:1007000001D105270AE02A4FB84201D1062705E0AA
:10071000284FB84201D1072700E0082707FA08F759
:100720002743CCF80878DAF800405746D1F804C0DF
:100730009C435FEACC2C00D51C433C60DBF80040B6
:100740005F46D1F804C09C435FEA8C2C00D51C4363
:100750003C60DEF800407746D1F804C09C435FEA75
:100760008C3C00D51C433C60084F083F3C68D1F8E6
:1007700004C09C435FEACC3C00D51C433C60521C47
:10078000102AFFF42FAFBDE8F88F0000083C0140AD
:1007900044380240003001400000024000040240A2
:1007A00000080240000C0240001002400014024009
:1007B00000180240001C02400069084000D00120DF
:1007C0007047426921EA02030A4043EA024181611B
:1007D00070470AB1816170470904FBE701488068EE
:1007E000704700002C000020024881680278114404
:1007F000816070472C0000200B4810B5016841F45F
:1008000000710160016841F480610160016841F498
:1008100080710160032000F06FF80F2000F006F8EF
:1008200000F024F8002010BD003C024070B50D4DD2
:1008300004464FF47A712878B1FBF0F00A49096850
:10084000B1FBF0F000F093FC48B9102C07D2002265
:100850002146501E00F030F800206C6070BD012071
:1008600070BD00002C000020380000200A4808B5A8
:10087000016841F480410160006800F4804000900C
:100880000548001F016841F080510160006800F0D8
:100890008050009008BD000044380240002809DB69
:1008A00000F01F02012191404009800000F1E0208A
:1008B000C0F8001170470000F0B40E4B1B680C46E6
:1008C000C3F30223C3F10705042D00D90425191D24
:1008D000072901D2002300E0DB1E012606FA05F1FC
:1008E000491E214099409E40761E16403143F0BC7F
:1008F00002F048B90CED00E0064900F00702086874
:100900004FF6FF03184040EA0220034A10430860F4
:10091000704700000CED00E00000FA052DE9F047FB
:100920000E46050065D0DFF81481D8F80000F7B254
:1009300000F00700B04207D288F80070D8F8000035
:1009400000F00700B04254D128683D4C810712D511
:10095000400703D5206840F4E05020602878000765
:1009600003D5206840F4604020602068A96820F02A
:10097000F000084320602878C0072DD0304968680F
:100980000839012812D0022813D0032811D0096891
:10099000890700292DDA216821F003010143216034
:1009A000FFF71CFF814641F2883A0EE0096889038F
:1009B000EFE709688901ECE7FFF710FFA0EB0901F9
:1009C000514502D90320BDE8F0872068696800F02E
:1009D0000C00B0EB810FEFD1D8F80010404601F0C9
:1009E0000701B14207D90770006800F00700B04264
:1009F00001D00120E7E72878400705D52068E9689D
:100A000020F4E050084320602878000706D52068CD
:100A1000296920F4604040EAC100206000F038F805
:100A20002168084AC1F30311515CC84006490860B7
:100A300006480068FFF7FAFE0020C4E7003C0240C9
:100A400008380240702D00083800002030000020D7
:100A50000448054900680968044AC1F38221515CD1
:100A6000C84070473800002008380240802D000838
:100A70000448054900680968044AC1F34231515CE1
:100A8000C84070473800002008380240802D000818
:100A9000154810B5006810F00C02144813D041102E
:100AA000042A0FD0082A0ED10F4C241F2268236875
:100AB00002F03F025B0207D52068C0F38810A0FB5C
:100AC000010106E0084610BD2168C1F38811A1FBB1
:100AD00000010023FFF774FB2168C1F30141491CA9
:100AE0004900B0FBF1F010BD083802400024F400CA
:100AF0002DE9F84F04006ED02078DFF84C93C00742
:100B0000A9F104054AD009F104000168C1F381018B
:100B1000012908D00068C0F3810002280AD1D9F861
:100B20000000400206D52868800337D56068002899
:100B3000E1D033E06068B0F5803F10D0B0F5A02F71
:100B4000286810D020F480302860286820F48020A5
:100B500028606068A8B1FFF741FE06460DE02868EE
:100B600040F48030F4E740F480202860F7E700BFCD
:100B7000FFF734FE801B642873D828688003F7D5FC
:100B80000CE0FFF72BFE064605E000BFFFF726FE50
:100B9000801B6428F0D828688003F7D42078DFF819
:100BA000AC8280074FF0000A3ED5A748001D0168BF
:100BB00011F00C0F08D00068C0F3810002280BD19F
:100BC000D9F80000400207D42868800716D5E068ED
:100BD000012800D112E033E1E068B8B10120C8F883
:100BE0000000FFF7FBFD064605E000BFFFF7F6FD3E
:100BF000801B0228C0D828688007F7D5286821699B
:100C000020F0F80040EAC10028600DE0C8F800A01C
:100C1000FFF7E4FD064604E0FFF7E0FD801B022835
:100C20001FD828688007F7D42078000722D5864F80
:100C300087486169703771B101210160FFF7CEFD0E
:100C4000064604E0FFF7CAFD801B022809D8386871
:100C50008007F7D50EE0C0F800A0FFF7BFFD0646FD
:100C600005E082E0FFF7BAFD801B02287DD83868D6
:100C70008007F7D42078400768D5DFF8CCB100278B
:100C80000BF13C0BDBF80000C0000BD4DBF80010CC
:100C900041F08051CBF80010DBF80000012700F094
:100CA000805000906B4E3068C00510D4306840F41E
:100CB00080703060FFF792FD009005E0FFF78EFD39
:100CC0000099401A022850D83068C005F6D55E4E0B
:100CD000A0686C3601280FD00528306810D020F0AD
:100CE00001003060306820F004003060A068B8B1C6
:100CF000FFF774FD00900FE0306840F00100F4E76A
:100D000040F004003060F7E7FFF768FD0099411AF2
:100D100041F28830814266D830688007F4D50EE011
:100D2000FFF75CFD009007E0FFF758FD0099411ABE
:100D300041F28830814256D830688007F4D42FB110
:100D4000DBF8001021F08051CBF80010A069C8B387
:100D50003D49091D0968C1F3810102294AD00228D1
:100D6000504607D0C8F8600000E03CE0FFF736FDD1
:100D700004463BE04746C8F86000FFF72FFD0646F3
:100D800005E000BFFFF72AFD801B02282BD828684A
:100D90008001F7D4D4E907010843A16A2E4A490823
:100DA00002EB0141626A41EA8211084394F82C1077
:100DB00040EA0161C9F8001001203866FFF70EFD16
:100DC000044606E03EE000BFFFF708FD001B0228D6
:100DD00009D828688001F7D534E000BFFFF7FEFC92
:100DE000001B022802D90320BDE8F88F2868800183
:100DF000F4D427E00128F7D0D9F80000E26900F424
:100E0000800191421CD1226A00F03F01914217D12A
:100E100047F6C071626A0140B1EB821F10D1A26A2D
:100E20004FF0FF3300F4403103EB5202B1EB024FBD
:100E300006D194F82C1000F07060B0EB016F01D077
:100E40000120D1E70020CFE70438024000004742EC
:100E5000800E4742007000400000FFFF70B50400A4
:100E600009D0606A002540B125616561A56294F8EA
:100E7000510040B10CE0012070BD6068B0F5827F88
:100E8000F4D0E561F2E784F85050204600F044F8D1
:100E9000022084F851002068016821F040010160BF
:100EA000A088218900F4827001F404410843A189DB
:100EB00001F400610843217C01F002010843217D17
:100EC00001F001010843218B01F400710843217FE7
:100ED00001F03801084394F8201001F08001084324
:100EE000218D01F40051084321680860A0690421A4
:100EF00001EA104094F8241001F010010843216821
:100F000048602068C16921F40061C1616565012004
:100F100084F85100002070BD10B586B0044614213D
:100F20006846FFF785F913492068884220D11248A6
:100F30000021026842F480520260006800F4805090
:100F400005900D481438026842F001020260006802
:100F500000F001000590E02000900220CDE90101A1
:100F6000032003900520049069460448FFF72CFBFA
:100F700006B010BD0030014044380240000002407D
:100F80002DE9FF4F81B0044690F8500000260E9FD7
:100F90001D4693464FF0010901280FD04FF0010A7A
:100FA00084F850A0FFF71AFC804694F8510061685D
:100FB00001280DD0B1F5827F08D103E0022005B0F1
:100FC000BDE8F08FA16809B9042801D00226C9E064
:100FD0000298002865D0BBF1000FFBD0002DF9D09E
:100FE00094F85100042802D0052084F85100002014
:100FF0006065C4F838B0E587A58702992163E58666
:10100000A5862064606420680168490603D40168ED
:1010100041F040010160E068B0F5006F606803D006
:10102000F0B3012D47D081E008B1012D3CD1206BF8
:1010300021680088C860206B801C2063E08E401E01
:10104000E08631E02068816889070FD5E18E69B1BB
:10105000B9F1010F0AD1216B0988C160206B801C96
:101060002063E08E401EE0864FF000092068816812
:10107000C9070CD0E18F51B1C068A16B0880A06B8B
:10108000801CA063E08F401EE0874FF00109FFF74E
:10109000A5FBA0EB0800B84206D3781C04D001E001
:1010A00009E05BE003265BE0E08E0028CAD1E08F18
:1010B0000028C7D140E0206B216800780873206BBE
:1010C000401C2063E08E401EE0862FE0206881688F
:1010D00089070FD5E18E69B1B9F1010F0AD1216BF2
:1010E00009780173206B401C2063E08E401EE0866F
:1010F0004FF0000920688168C9070CD0E18F51B119
:10110000C068A16B0870A06B401CA063E08F401EFC
:10111000E0874FF00109FFF761FBA0EB0800B84240
:1011200002D3781C02D0BAE7002FB8D0E08E002896
:10113000CCD1E08F0028C9D142463946204600F084
:10114000B9FF18B10126202060650BE0A06818B92E
:101150002068C16880680090606D08B1012601E0D8
:1011600084F851A0002084F85000304627E710B5DD
:10117000401EB0F1807F01D3012010BD4FF0E0246C
:1011800060610F21601701F0FDFC0020A0610720C5
:101190002061002010BD70477047000070B590F8C6
:1011A0003C20012A32D0012480F83C40022280F801
:1011B0003D2003685A689D6822F070060A68324331
:1011C0005A60134B02689A4214D0B2F1804F11D08A
:1011D000104B9A420ED0104B9A420BD00F4B9A42B2
:1011E00008D00F4B9A4205D00E4B9A4202D00E4BBC
:1011F0009A4204D1496825F080031943916080F830
:101200003D40002180F83C10084670BD022070BDB2
:10121000000001400004004000080040000C0040B5
:1012200000040140004001400018004010B50400D7
:1012300003D094F83D0010B107E0012010BD00205C
:1012400084F83C00204600F01FF8022084F83D009E
:10125000211D206801F026F8012084F8460084F85A
:101260003E0084F83F0084F8400084F8410084F890
:10127000420084F8430084F8440084F8450084F870
:101280003D00002010BD000008B501681148B1F113
:10129000804F0BD0104A914210D1016841F00201F9
:1012A0000160006800F00200009008BD016841F094
:1012B00001010160006800F00100F5E7074A914272
:1012C000F3D1016841F004010160006800F00400FE
:1012D000EAE70000403802400004004000080040F7
:1012E00090F83D10012901D001207047022180F8BB
:1012F0003D100168CA6842F00102CA6000681149E5
:10130000884214D0B0F1804F11D00F4988420ED0DE
:101310000E4988420BD00E49884208D00D498842B8
:1013200005D00D49884202D00C49884204D1816819
:1013300001F00701062903D0016841F001010160B5
:1013400000207047000001400004004000080040F9
:10135000000C004000040140004001400018004023
:1013600070B5044690F83C000025012817D00126EE
:1013700084F83C60022084F83D002068826822F0F6
:10138000770222F47F4282600868502838D00DDC52
:1013900020284FD005DC90B3102811D14AE002205C
:1013A00070BD302846D040280AD13BE060282FD0BD
:1013B00070280DD0B0F5805F03D0B0F5005F12D07B
:1013C000012584F83D60002084F83C00284670BD6B
:1013D000CB68D1E90121206800F0DDFF2068816839
:1013E00041F0770109E0CB68D1E90121206800F0E4
:1013F000D2FF2068816841F480418160E1E719E013
:10140000CA684968206801F0A1F85021206806E008
:10141000CA684968206801F0AAF86021206800F0D5
:10142000C4FFCEE7CA684968206801F08FF8402100
:101430002068F4E7226801461046F0E770472DE97E
:10144000F04104460068C66805694FF00007A90727
:1014500013D5B10711D5F91E01610120207720684D
:1014600080698007204602D0FFF7E8FF04E000F023
:10147000A7F8204600F039F92777680716D57007D6
:1014800014D521686FF004000861022020772068DD
:10149000806910F4407F204602D0FFF7CFFF04E0C0
:1014A00000F08EF8204600F020F92777280715D5A0
:1014B000300713D521686FF00800086104202077F9
:1014C0002068C0698007204602D0FFF7B7FF04E01C
:1014D00000F076F8204600F008F92777E80616D5E0
:1014E000F00614D521686FF01000086108202077FD
:1014F0002068C06910F4407F204602D0FFF79EFFAD
:1015000004E000F05DF8204600F0EFF82777E807E8
:1015100008D0F00706D021686FF00100086120466E
:1015200000F048F9280608D5300606D521686FF086
:10153000800008612046FFF72EFE680608D5700679
:1015400006D521686FF040000861204600F0C0F920
:10155000A8060AD5B00608D521686FF020000861FA
:101560002046BDE8F041FFF717BEBDE8F08100005E
:1015700010B586B0044614216846FEF759FE0D49A1
:101580002068884213D10C48016841F002010160D3
:101590000068694600F0020005904020009002209B
:1015A00001900290039004900448FFF70DF806B0F4
:1015B00010BD000000080040303802400004024026
:1015C000704770B5044690F83C0000260D4601288F
:1015D0000FD0012084F83C006AB1042A1DD0082AEB
:1015E0002FD00C2A3FD00126002084F83C00304642
:1015F00070BD022070BD206800F0E0FE20688169A7
:1016000041F0080181612068816921F00401816154
:10161000206881692A69114311E0206800F0FEFE0C
:101620002068816941F4006181612068816921F449
:1016300080618161206881692A6941EA02218161B2
:10164000D2E7206800F020FF2068C16941F008015E
:10165000C1612068C16921F00401C1612068C169CC
:101660002A69114311E0206800F042FF2068C16937
:1016700041F40061C1612068C16921F48061C161E8
:101680002068C1692A6941EA0221C161ACE710B54D
:10169000040003D094F83D0010B107E0012010BD14
:1016A000002084F83C00204600F01EF8022084F858
:1016B0003D00211D206800F0F5FD012084F8460062
:1016C00084F83E0084F83F0084F8400084F841002C
:1016D00084F8420084F8430084F8440084F845000C
:1016E00084F83D00002010BD7047704710B50446D7
:1016F000022249B104290ED0082913D094F84100E0
:10170000012816D0012010BD94F83E000128F9D11F
:1017100084F83E200FE094F83F000128F2D184F8CD
:101720003F2008E094F840000128EBD184F84020E5
:1017300001E084F841200122206800F01FFE1649D4
:101740002068164A884201D0904203D1436C43F48A
:10175000004343642068884213D0B0F1804F10D01A
:101760000F4988420DD00F4988420AD00E4988425D
:1017700007D0904205D00D49884202D00C498842DA
:1017800004D1816801F00701062903D0016841F006
:1017900001010160002010BD000001400004014073
:1017A0000004004000080040000C004000400140E0
:1017B000001800402DE9F0410068404988427BD183
:1017C0003F488914002500883E4B4E103E4F3F4C49
:1017D000012822D04FF4005C02282AD0032835D0FB
:1017E000042840D005284BD0062857D0072863D1BD
:1017F00001224FF440511846FEF7EBFFA06943F277
:10180000B061401CA061884256D3A561314638467C
:10181000BDE8F0410022FEF7DCBF00221846FEF7CB
:10182000D8FF2068401C2060B0F5FA6F44D32560D3
:10183000ECE7002261461846FEF7CBFF6068401CCB
:101840006060B0F57A6F37D36560DFE70122184634
:10185000FEF7BFFFA06841F27071801CA060884253
:101860002AD3A560D2E7012261461846FEF7B1FFF0
:10187000E068401CE060B0F5FA5F1DD3E560C5E7A5
:10188000002261461846FEF7A4FF206942F210715B
:10189000401C206188420FD32561B7E7002218461B
:1018A000FEF797FF606942F6E061401C6061884284
:1018B00002D36561AAE7FFE7BDE8F08100040040BC
:1018C0000E00002000180240000802401000002016
:1018D0007047704770470000F8B501680446086813
:1018E000CA684B6910F00F0F4FF0000559D003F094
:1018F000010602F49077374365D0C10705D0D105C2
:1019000003D5616C41F001016164410705D5D90738
:1019100003D0616C41F002016164810705D5D907EC
:1019200003D0616C41F004016164010707D502F046
:101930002001314303D0616C41F008016164616CA6
:1019400000293AD0800604D5900602D5204600F042
:101950004FFE20684069616CC0F38010090700D415
:1019600060B3204600F01DFE20684069400621D586
:101970002068143050E8001F21F0400140E80012B8
:10198000002AF5D1E06BA8B16E490165E06BFEF766
:10199000EDFC002811D0E06B016D01B0BDE8F04016
:1019A000084783060FD593060DD52046BDE8F840BD
:1019B00000F01EBE2046FFF78DFFF8BD2046FFF762
:1019C00089FF6564F8BD266B2023012E7DD1C606F4
:1019D0007BD5D60679D508684868009048694FF0ED
:1019E0000206400641D5E16B086840680004000C1F
:1019F000E8D0A28D8242E5D9E085C869B0F5807F44
:101A00002DD020680C3050E8001F21F4807140E890
:101A10000012002AF5D12068143050E8001F21F090
:101A2000010140E80012002AF5D12068143050E886
:101A3000001F21F0400140E80012002AF5D184F88F
:101A40004230256320680C3050E8001F21F010015F
:101A500040E80012002AF5D1E06BFEF73EFC666319
:101A6000A08DE18D401A81B22AE0A08DE18D401A4F
:101A700081B2E08D0028A5D00029A3D022680C32C5
:101A800052E8000F20F4907042E80007002FF5D1D3
:101A90002068143050E8002F22F0010240E80027AF
:101AA000002FF5D184F84230256320680C3050E8CF
:101AB000002F22F0100240E80023002BF5D16663CE
:101AC0002046FFF706FFF8BDFFE705062BD51506F4
:101AD00029D594F841002128F5D1A068B0F5805FA0
:101AE00001D12069B0B1206A411C216221680078CF
:101AF0004860E08C401E0004000CE084E3D12068C4
:101B0000C16821F08001C1602068C16841F04001D6
:101B1000C160D8E7206A0088C0F308004860206AE6
:101B2000801C2062E5E74006CDD55006CBD5CA68BB
:101B3000204622F04002CA6084F8413000F0C5F827
:101B4000C1E700009325000870B5040004D094F8A4
:101B50004100002510B106E0012070BD84F840501E
:101B6000204600F023F8242084F841002068C16852
:101B700021F40051C160204600F09CFD20680169FD
:101B800021F4904101612068416921F02A014161FD
:101B90002068C16841F40051C1606564202084F868
:101BA000410084F842006563002070BD10B586B026
:101BB000044614216846FEF73BFB1849206888421A
:101BC00029D117480021026842F010020260006823
:101BD00000F01000059012481438026842F001022B
:101BE0000260006800F0010005904FF4C0600090B2
:101BF0000220CDE9010103200390072004906946EB
:101C00000848FEF7E1FC002211462520FEF754FEAD
:101C10002520FEF743FE06B010BD00000010014075
:101C2000443802400000024070472DE9F843044662
:101C300090F84100984616460D46202802D0022012
:101C4000BDE8F88385B17EB100206064212084F86E
:101C50004100FEF7C3FDA6848146E684A0682027E4
:101C6000B0F5805F02D003E00120E9E7206910B100
:101C70002E4600250EE000260CE08021204600F0D4
:101C80009FFDA8B9C6B116F8010B21684860E08C29
:101C9000401EE084E08C4B464FF00002CDF80080FF
:101CA0000028EAD14FF04001204600F089FD40B104
:101CB00084F841700320C3E735F8020BC0F3080035
:101CC000E3E784F841700020BAE77047FEE70000C0
:101CD0002DE9F04786B014216846FEF7A9FA40487E
:101CE000016841F080010160016801F08001059107
:101CF000016841F001010160016801F001010591F5
:101D0000016841F004010160016801F004010591DE
:101D1000016841F010010160016801F010010591B6
:101D2000016841F040010160016801F04001059146
:101D3000016841F0020101600068DFF8A89000F03E
:101D400002000590012210214846FEF742FD4FF4A3
:101D50000267002239464846FEF73BFDDFF888A0BF
:101D60004FF44058012241465046FEF732FD032011
:101D70004FF40416CDE900060124694602941B487D
:101D8000FEF722FC1020CDE90004022569464846F2
:101D9000CDE90245FEF718FC0097CDE901456946FB
:101DA00048460395FEF710FC4FF4C050CDE90006FD
:101DB000694602940E48FEF707FCA002CDE9000632
:101DC000694602944846FEF7FFFBCDE90084694668
:101DD0005046CDE90245FEF7F7FB06B0BDE8F087B7
:101DE0003038024000080240001802400000024063
:101DF0000010024010B5002211461C20FEF75CFDC9
:101E00001C20FEF74BFD002211461D20FEF754FD5D
:101E10001D20FEF743FD002211461E20FEF74CFD5B
:101E20001E20FEF73BFD002211462820FEF744FD50
:101E30002820FEF733FD002201210720FEF73CFD9C
:101E40000720FEF72BFD002201210620FEF734FDBE
:101E5000BDE810400620FEF721BD0000104810B577
:101E60000E4901604FF48271416000218160C160C0
:101E70004FF400720161C0E905122822C0E9072170
:101E8000416281620A21C162FEF7E8FF002803D0A7
:101E9000BDE81040FEF71FBA10BD00000030014041
:101EA0005000002010B586B000241848009401941A
:101EB0000294039404944FF08041059401604721FB
:101EC000C0E9011441F28731C0E903148021816126
:101ED000FFF7ACF908B1FEF7FEF94FF4805000901F
:101EE00069460A48FFF73CFA08B1FEF7F4F9049492
:101EF00004A906480594FFF751F908B1FEF7EBF97C
:101F00000248FFF7EDF906B010BD0000A800002060
:101F100010B586B0002418480094019402940394EC
:101F200004941449059401602321C0E9011441F28D
:101F30008731C0E9031480218161FFF777F908B187
:101F4000FEF7C9F94FF48050009069460A48FFF740
:101F500007FA08B1FEF7BFF9049404A906480594EE
:101F6000FFF71CF908B1FEF7B6F90348FFF7B8F917
:101F700006B010BD00040040F000002010B58EB087
:101F800000240794089409940A940B941C21684631
:101F90000C94FEF74DF921481F4901604721C0E923
:101FA000011444F61F61C0E9031480218161FFF729
:101FB0003DF908B1FEF78FF94FF48050079007A95B
:101FC0001648FFF7CDF908B1FEF785F91348FFF77A
:101FD0005EFB08B1FEF77FF90B940BA90F480C9438
:101FE000FFF7DCF808B1FEF776F96020CDE90004D0
:101FF00002940022694609480494FFF7E2FA08B106
:10200000FEF769F900210548FFF770FB0348FFF769
:10201000AFFA0EB010BD00000008004038010020EB
:102020000C4810B50A4901604FF4E13141600021CC
:1020300081600C22C160C0E904128161C161FFF7B7
:1020400083FD002803D0BDE81040FEF744B910BD61
:102050000010014080010020FEE7FEE7704700000D
:1020600001B582B04FF47A700090012301AA02A951
:102070000248FEF785FF9DF804000EBD50000020C9
:102080000B4910B50A68136823F0400313600A680F
:1020900013684FF6C774234013600A68136803433C
:1020A00013600868016841F04001016010BD000044
:1020B00050000020F8B515460E460B460092044627
:1020C0000122022100F02CF8A0B91348134900683E
:1020D000B0FBF1F04FF47A71484300906068B0F5BE
:1020E000827F0DD13346002280212046009500F0EA
:1020F00017F870B1606D40F0200060650320F8BDF6
:10210000009830B1401E009020688068C0430006EF
:10211000F6D50020F8BD00003800002000366E0122
:102120002DE9F8431E46914688460446089DFEF771
:1021300055FB401B351AFEF751FB07462548006842
:10214000C0F3CB30684338E0701C37D0FEF746FB55
:10215000C01BA84203D215B1009860B32CE02068E0
:10216000416821F0E00141606068B0F5827F0BD1E9
:10217000A068B0F5004F02D0B0F5806F04D12068A0
:10218000016821F040010160A06AB0F5005F09D14B
:102190002068016821F4005101602068016841F461
:1021A00000510160012084F85100002084F85000A3
:1021B0000320BDE8F8830025401E00902068816858
:1021C00038EA010004D000214945BDD10020F0E7E4
:1021D0000121F9E7380000207047FEF705BB000039
:1021E00030B593B030216846FEF722F814210CA8D0
:1021F000FEF71EF81C480025016841F0805101607F
:10220000006800F0805011901848016841F4804146
:1022100001600068022400F48040119001200090C9
:10222000000401908001CDE9064008AA042048215D
:1022300082E813000B906846FEF75AFC08B172B6AC
:10224000FEE70CA90F2081E831004FF4A050CDE942
:102250000F0502210CA8FEF761FB002801D072B621
:10226000FEE713B030BD000040380240007000406F
:102270000248016841F470010160704788ED00E098
:102280000148FFF7DCB80000A80000200148FFF774
:10229000D6B80000F00000200148FFF7D0B80000D9
:1022A00038010020F0B50268294C2A4D2A4E2B4FE8
:1022B0002B4B4FF0804CA04209D0604507D0A8427C
:1022C00005D0B04203D0B84201D0984204D122F0E8
:1022D000700E4A6842EA0E02A0421BD0604519D037
:1022E000A84217D0B04215D0B84213D0984211D0AE
:1022F0001C4DA8420ED01C4DA8420BD01B4DA8422D
:1023000008D01B4DA84205D01A4DA84202D01A4D44
:10231000A84203D122F44075CA682A434D6922F0CD
:1023200080022A4302608A68C2620A688262A0420E
:1023300001D0984201D1096901630121416101691C
:10234000C90703D0016921F001010161F0BD00005E
:10235000000001400004004000080040000C004064
:102360000004014000400140004401400048014099
:1023700000180040001C00400020004010B501F093
:102380001F030121046A99408C430462016A9A4048
:102390001143016210BD10B5846842EA032224F49F
:1023A0007F440A432243826010BD826822F070029B
:1023B0000A4342F00701816070470000F0B5036AEC
:1023C000026A22F00102026242688469124E24F01D
:1023D00073050C682C4323F002058B682B430D4DCD
:1023E000A84201D0B04205D123F00807CB683B4397
:1023F00023F00403A84201D0B04205D14D6922F474
:10240000407215438A692A43426084614968416386
:102410000362F0BD0000014000040140F0B5026A13
:10242000036A23F010030362436884690D6824F48F
:10243000E64444EA05248D6822F0200242EA0512AF
:102440000F4D104EA84201D0B04206D1CF6822F005
:10245000800242EA071222F04002A84201D0B042B4
:1024600007D14D6923F4406343EA85038D6943EA4C
:10247000850343608461496881630262F0BD0000A6
:102480000000014000040140F0B5026A036A23F431
:10249000807303624368C46922F4007224F07305F8
:1024A0000C68124E2C438D6842EA05220E4DA8425C
:1024B00001D0B04206D1CF6822F4006242EA07227E
:1024C00022F48062A84201D0B04207D14D6923F4C2
:1024D000405343EA05138D6943EA05134360C46121
:1024E0004968C1630262F0BD000001400004014080
:1024F00030B5046A026A22F4805202624268C369FB
:102500000D6823F4E64343EA05238D6824F4005460
:1025100044EA0534084DA84202D0084DA84204D12F
:102520004D6922F4804242EA85124260C3614968E3
:102530000164046230BD000000000140000401405D
:1025400001490860704700003408004010B5036A74
:10255000046A24F001040462846924F0F00444EA6B
:10256000021423F00A020A438461026210BD10B50E
:10257000036A046A24F010040462846923F0A0034F
:1025800024F4704444EA023243EA01118261016298
:1025900010BD10B5806B0021C185C184FFF79AF989
:1025A00010BD01680C3151E8002F22F4907241E80F
:1025B0000023002BF5D10168143151E8002F22F0DF
:1025C000010241E80023002BF5D1016B012909D15B
:1025D00001680C3151E8002F22F0100241E800237D
:1025E000002BF5D1202180F84210002101637047B3
:1025F00008B590F84210222901D0022008BD826857
:102600004FF480539A4201D1016921B1816A9A4203
:102610001BD04AB10AE00268816A5268C2F308021C
:102620000A80816A891C08E0026972B102685268F6
:1026300002F07F020A70816A491C8162C18D491EC5
:102640000904090CC18503D01BE002685268F1E758
:102650000168CA6822F02002CA600168CA6822F4D0
:102660008072CA6001684A6922F001024A61202131
:1026700080F8421000214163026B012A03D0FFF76A
:10268000D3FA002008BD016301680C3151E8002F26
:1026900022F0100241E80023002BF5D101680A68FE
:1026A000D20602D50A6849680091818DFFF711F9B9
:1026B000E7E7000070B5044600680169E26821F4AC
:1026C0004051114301612169A068E26908436169D1
:1026D000114308432168CA6849F20C639A430243D4
:1026E000CA6020684169A26921F4407111434161C7
:1026F00031492068884202D03049884202D1FEF731
:10270000B7F901E0FEF7A4F9E26900231921642575
:102710003226B2F5004F626828D0A0FB0101930F6A
:102720009200FDF74DFD0146B0FBF5F06FF0180289
:10273000504301EB800006EB0010B0FBF5F000F019
:10274000F002B1FBF5F002EB0012B1FBF5F06FF017
:102750001803584301EB800006EB0010B0FBF5F0C6
:1027600000F00F0021681044886070BDA0FB0101DB
:1027700092185B41FDF724FD0146B0FBF5F0020124
:10278000B1FBF5F06FF01803584301EB800006EB46
:10279000C000B0FBF5F000F0F80002EB4002B1FB26
:1027A000F5F0584301EB800006EBC000B0FBF5F0FC
:1027B00000F00700D6E700000010014000140140BF
:1027C0002DE9F843984617460D460446089E24E036
:1027D000701C22D0FEF702F8A0EB0800B0421AD815
:1027E000CEB12068C168490717D5802D15D0402D7E
:1027F00013D00168C94309070FD401680025406858
:1028000000902046FFF7CDFE0820606484F8405019
:102810000120BDE8F8830320FBE72068006835EA63
:10282000000004D00020B842D2D00020F1E70120FF
:10283000F9E700000148FFF74FB8000080010020D1
:10284000FEE7000070B5040300F02EF900F0D6F8A2
:10285000104D0020C5F890022020FFF701FC0E4823
:102860000088A0F56F41183902D1200EFFF7F8FB60
:10287000C4F30740FFF7F4FBC4F30720FFF7F0FBB6
:10288000E0B2FFF7EDFB0120C5F89002BDE8704013
:1028900000F0B4B8000041423C00002070B51A4876
:1028A00086B00026016841F0200101600068012522
:1028B00000F0200005904020CDE900050220CDE980
:1028C000025069461148FDF77FFE114CC4F8905242
:1028D000FFF7C4FA0020FFF7D3FB00F051F80D49D1
:1028E0000880A0F56F4114390BD1032000F06AF87D
:1028F000C00706D1C4F89062B720FFF7B1FBC4F857
:10290000905206B070BD0000303802400014024002
:10291000000041423C0000202DE9F041164E0746E0
:10292000002015460C46C6F890020320FFF798FBDE
:1029300012480088A0F56F41183902D1200EFFF728
:102940008FFBC4F30740FFF78BFBC4F30720FFF7AF
:1029500087FBE0B2FFF784FB002405E0FF20FFF7D0
:102960007FFB3855641CA4B2AC42F7D30120C6F8F3
:102970009002BDE8F0810000000041423C000020D0
:1029800070B50F4C0025C4F89052902004F52474C3
:10299000FFF766FB0020FFF763FB0020FFF760FBFB
:1029A0000020FFF75DFBFF20FFF75AFB45EA0025FB
:1029B000FF20FFF755FB28430121216070BD000077
:1029C0000000414210B5012803D0022803D003289B
:1029D00003D0052002E0352000E01520064C002140
:1029E000C4F8901204F52474FFF73AFBFF20FFF7B8
:1029F00037FB0121216010BD0000414210B50120CC
:102A0000FFF7E0FFC007FAD110BD00002DE9F05F2D
:102A1000C1F30B06DFF88C800F0BC6F58054894696
:102A200082461546A24200D8144639038B464FF41D
:102A300080524046FFF770FF002006E0321818F879
:102A40000210FF2903D1401C80B2A042F6D3A0425D
:102A500022D23846FFF7F6FE002006E01AF80020E2
:102A60008319401C08F8032080B2A042F6D35946CF
:102A70004FF480524FEA080000F026F8A5420FD02C
:102A8000281BA244A144002685B24FF480547F1C29
:102A9000A542CAD82C46C8E7224649465046EBE72D
:102AA000BDE8F09FC801002010B5064C0020C4F816
:102AB0009002062004F52474FFF7D2FA012020606A
:102AC00010BD0000000041422DE9F0410746C8B2A8
:102AD000C0F580740E461546A24200D814464FF445
:102AE000807822463146384600F00EF8A54208D0DC
:102AF000281B2744264485B24446A542F1D82C46DB
:102B0000EFE7BDE8F08100002DE9F04115460C46E5
:102B10000746FFF7C9FF154E0020C6F890020220B5
:102B2000FFF79EFA12480088A0F56F41183902D1CC
:102B3000200EFFF795FAC4F30740FFF791FAC4F3AC
:102B40000720FFF78DFAE0B2FFF78AFA002404E0CD
:102B5000385DFFF785FA641CA4B2AC42F8D30120BB
:102B6000C6F89002BDE8F041FFF748BF00004142BF
:102B70003C000020014A024900F023B8E52B000880
:102B8000400000200907090E002804DB00F1E020C6
:102B900080F80014704700F00F0000F1E02080F88A
:102BA000141D704702E008C8121F08C1002AFAD19C
:102BB00070477047002001E001C1121F002AFBD1BD
:102BC00070472DE9F04116460F460446002503E004
:102BD0003946B047641C6D1C20780028F8D128467F
:102BE000BDE8F08113B54FF0FF330122694602487A
:102BF000FFF71BF800981CBD80010020484C4FF0E7
:102C000080702060FDF7F8FDFFF7EAFAFFF760F843
:102C1000FFF748F9FFF77CF9FFF7B0F9FFF71EF966
:102C2000FFF7FEF9FFF7E6F8FFF738FE3D4D01220A
:102C3000D1022846FDF7CDFD012220212846FDF7CF
:102C4000C8FD4FF4FA70FDF7A3FB002220212846AF
:102C5000FDF7BFFD34A0FFF78DFF216809223E4834
:102C6000A1F59671FFF758FE4FF47A7309223A499D
:102C70003A48FEF7DAFFDFF8E0803949022798F892
:102C800000000425374C0326612804D0622807D0B1
:102C900063280AD00FE025800E8042F2107008E011
:102CA00025800F8042F6E06003E025800D804FF420
:102CB000FA50FFF745FC98F800002B49642804D02F
:102CC000652807D066280AD00FE026800E8043F6DC
:102CD000982008E026800F8044F2682003E02680D8
:102CE0000D8043F2C820FFF72BFC98F800001F4925
:102CF000672804D0682807D06A280AD00FE0278008
:102D00000E8044F6206008E027800D8044F2506079
:102D100003E0052020804FF47A60FFF711FCFEE706
:102D200000000020000802402D2D2D2D2D2D2D2DD1
:102D300020726561642064617461206166746572EB
:102D4000207772697465202D2D2D2D2D2D2D2D2D83
:102D50002D2D0D0A000000004400002080010020FD
:102D60000600002004000020080000200A000020C7
:102D7000000000000000000001020304060708092B
:102D80000000000001020304A82D0008000000203C
:102D900044000000A42B0008EC2D00084400002093
:102DA00084150000B42B000800000000050004009A
:102DB00004000400310000000000000000000000DA
:102DC0000000000000000000000000000000000003
:102DD00000000000010000001000000000000000E2
:0C2DE0000024F40018EF000000000000C8
:040000050800018965
:00000001FF
